:020000040800F2
:10000000E005002001010008512B00087D250008B3
:10001000012A0008E90B0008012F00080000000079
:10002000000000000000000000000000552B000848
:10003000810C000800000000532B0008C12B0008B1
:100040001B0100081B0100081B0100081B01000820
:100050001B0100081B0100081B0100081B01000810
:100060001B0100081B0100081B0100081B01000800
:100070001B0100081B0100081B0100081B010008F0
:100080001B0100081B0100081B0100081B010008E0
:10009000F52E00081B0100081B0100081B010008C9
:1000A000892C0008AD2C0008A12C0008952C000814
:1000B0001B010008C12C0008000000001B01000803
:1000C0001B01000800000000000000001B010008E8
:1000D000000000001B0100081B01000800000000D8
:1000E0001B0100081B0100081B010008DFF80CD0F1
:1000F00000F0D6FC0048004765450008E0050020F8
:100100000648804706480047FEE7FEE7FEE7FEE7B1
:10011000FEE7FEE7FEE7FEE7FEE7FEE75D2C0008F0
:10012000ED000008202A04DB203A21FA02F0002129
:10013000704721FA02F3D040C2F1200291400843F7
:1001400019467047D2B201E000F8012B491EFBD2DC
:1001500070470022F6E710B513460A4604461946D2
:10016000FFF7F0FF204610BDF0B480EA0102D40F83
:100170004200B2EB410F02D20246084611464A0045
:1001800042D0C30DDDB2C1F3C752AD1A202D35DA0E
:10019000C1F3160141F4000204B15242C5F1200638
:1001A00002FA06F12A411044B3EBD05F23D0C4B168
:1001B000012DA0EBC35009DCF0BC4FF0004202EA75
:1001C000C352DBB200F5000000F083BB400000F139
:1001D000807000EBC350A0F1807040EAD1704900FC
:1001E00009E0490841EAC071A0EBC35000F50000E6
:1001F000400800EBC350F0BC00F062BB614201223A
:1002000002EB4101001BF6E7F0BC704781F00041B2
:10021000AAE780F00040A7E780EA010210B502F0EB
:100220000043400022D04A001FD0010E01EB1261B2
:10023000C0F35600C2F3560240F4000042F400023C
:10024000A0FB022000047F39140400D0401C50EAB7
:10025000124001D44000491EC2B20C0604EBD0107B
:10026000401C4008802A02D003E0002010BD20F08E
:100270000100002900DA0020184310BD30B480EAE4
:10028000010202F0004530F0004221F0004013D09E
:1002900090B1C30DD40DC2F31601C0F31600E41AD9
:1002A00041F4000140F400027D34914201D3641C0A
:1002B00000E04900002C02DA30BC002070474FF407
:1002C00000000023914201D3891A034340084FEAFA
:1002D0004101F7D151B1914202D14FF0004105E007
:1002E00002D24FF0010101E06FF0010103EBC450B5
:1002F000284430BC00F0E4BA420005D0C0F3C75235
:100300005242914201DC0020704700EBC15070471F
:100310002DE9FE4F804681EA0300C00F0C46009095
:1003200021F0004123F00045B8EB0200A94105D2BD
:100330004046214690461C460B46024623F00040AC
:10034000104347D0270DC7F30A00C3F30A510290A8
:10035000401A019040286BDAC3F3130040F4801B6D
:100360000098924620B10023D2EB030A63EB0B0BFB
:1003700001985946C0F14002504600F080FA064606
:100380000D4650465946019A00F088FA10EB0800D5
:100390006141002487EA115284EAE7731A4340D08E
:1003A000009A62B3019A012A4FEA075215DC001B3A
:1003B00061EB02014FF0004202EA0752CDE9004230
:1003C000001C41F5801132462B4600F0BFFA03B005
:1003D000BDE8F08F40462146F9E7001B61EB0201C2
:1003E000001C41F5801300185B412018A2F500178E
:1003F00047EB030140EAD570B6196D4111E06D0875
:100400004FEA360645EAC0754FEA0752001B61EB1A
:100410000201001C41F5801149084FEA3000001923
:10042000514132462B4603B0BDE8F04F00F07FBA91
:100430000098012240000023D0EB020263EBE0733E
:10044000009821464FEAE074B8EB000061EB04012C
:10045000E9E783F000435BE781F0004158E72DE9CD
:10046000FE4F81EA030404F0004421F000410094AF
:100470004FF0000B23F0004350EA01045ED052EA33
:1004800003045BD0C3F30A54C1F30A552C44A4F20D
:10049000F3340194A0FB0254C1F3130141F4801121
:1004A000C3F3130343F4801301FB024400FB034E28
:1004B000840A970A44EA815447EA8357A4FB0768F1
:1004C00002958D0A05FB07854FEA932C04FB0C541B
:1004D0002705029D4FEA065847EA1637B5EB08058F
:1004E0006EEB070C870E920E47EA811742EA8312E1
:1004F000A7FB0201B6EB0B0164EB00042B0D43EAF2
:100500000C335E1844EB1C50DA465146E7FB0201FF
:10051000C5F313044FEA0B3343EA14534FEA043292
:10052000019C43EA0603A4F10C040294009CCDE96B
:1005300000B400F00BFA03B0BDE8F08F00200146D4
:10054000F9E72DE9F04D81EA030404F0004B21F0B6
:10055000004514464FF0000A23F0004150EA05021E
:1005600020D054EA01021DD0C5F30A570246C5F354
:100570001303C1F31300C1F30A5640F4801543F48A
:100580008013A7EB0608101BD64608F2FD3873EB64
:10059000050002D308F1010801E092185B41B8F1AF
:1005A000000F03DA00200146BDE8F08D00204FF473
:1005B0008011064684460EE0171B73EB050705D332
:1005C000121B63EB050306434CEA010C49084FEA92
:1005D000300092185B4150EA0107EDD152EA030066
:1005E00012D082EA040083EA0501084305D0101BFB
:1005F000AB4106D20122002306E000224FF0004367
:1006000002E06FF0010253101AEB06004CEB0851A8
:1006100010EB0A0041EB0B01BDE8F04D00F087B98B
:10062000C10F80EAE0700844CA079623002100F059
:1006300050B90EB5C10F80EAE0700844CA07002126
:1006400040F233438DE80E000A460B4600F07EF977
:1006500003B000BD0EB540F2334102910021CDE957
:1006600000110A460B4600F071F903B000BD00F01E
:10067000004220F00040C10DC0F3160040F400001D
:100680007F2901DA00207047962903DCC1F1960129
:10069000C84001E096398840002AF4D040427047B3
:1006A00020F00040C10DC0F3160040F400007F2987
:1006B00001DA00207047962903DCC1F19601C84099
:1006C000704796398840704770B5C1F30A5201F0FF
:1006D00000450024C1F3130140F2FF3341F48011BF
:1006E0009A4201DA002070BD40F233439A42A2F2EE
:1006F000334203DC5242FFF715FD00E090402C43EB
:10070000F1D0404270BDC1F30A5210B5C1F31301DC
:1007100040F2FF3341F480119A4201DA002010BD0B
:1007200040F233439A42A2F2334203DC5242FFF7D3
:10073000F9FC10BD904010BD00F0004230F00040C8
:100740000AD0C10D01F56071C0F3160042EA0151F3
:10075000C20840071143704700200146704700005F
:1007600030B5041E71F1000404DB4FF00044404238
:1007700064EB0101141E73F1000405DB1C464FF00D
:100780000043524263EB0403994208BF904230BDDC
:1007900001F0004330B421F0004150EA010206D0DC
:1007A0000A0DA2F56072C1F31301002A02DC30BC0D
:1007B00000207047440F44EAC104C100E01830BC77
:1007C00000EBC25000F07CB8002801DBC0F1004013
:1007D000002901DBC1F1004181427047002801DBA3
:1007E000C0F10040002901DBC1F10041884270479F
:1007F00030B50B46014600202022012409E021FAF1
:1008000002F59D4205D303FA02F5491B04FA02F5ED
:100810002844151EA2F10102F1DC30BD2DE9F05F84
:100820000546002092469B4688460646814640245F
:100830001BE02846414647462246FFF773FC5346D5
:100840005A46C01A914110D311461846224600F06C
:1008500016F82D1A67EB01084F46224601200021A9
:1008600000F00DF817EB00094E41201EA4F1010421
:10087000DFDC484631462A464346BDE8F09F202A41
:1008800004DB203A00FA02F1002070479140C2F1E7
:10089000200320FA03F3194390407047202A06DB17
:1008A000CB17203A41FA02F043EAE07306E041FA3E
:1008B00002F3D040C2F1200291400843194670472C
:1008C0000029A8BF7047401C490008BF20F0010064
:1008D000704710B4B0FA80FC00FA0CF050EA010442
:1008E00004BF10BC704749B1CCF1200421FA04F4D4
:1008F00011FA0CF118BF012121430843A3EB0C01AD
:10090000CB1D4FEA00614FEA102042BF002010BC0F
:10091000704700EBC35010440029A4BF10BC7047BF
:10092000401C490008BF20F0010010BC704710B502
:10093000141E73F1000408DA401C41F10001921802
:100940005B411A4301D120F0010010BD2DE9F04DAB
:1009500092469B4611B1B1FA81F202E0B0FA80F200
:1009600020329046FFF78BFF04460F4640EA0A000C
:1009700041EA0B0153465A46084313D0114653EA45
:10098000010019D0C8F140025046FFF7CBFB0546E5
:100990000E46504659464246FFF771FF084305D0C0
:1009A000012004E020463946BDE8F08D00200543D3
:1009B00046EAE0762C4337430A986305E40AA0EB45
:1009C00008000022FD0A44EA47540A3002D50020FC
:1009D0000146E9E7010510196941DDE908450019FB
:1009E0006941BDE8F04DA2E72DE9FE4FC3F30A5778
:1009F00001F000450024C1F30A56C3F31303C1F309
:100A0000130143F4801312EB020AA64641F480114D
:100A1000009543EB030CA7F1010B16E0B0EB0A00C5
:100A200061EB0C01071E71F1000707DA4FF00008B7
:100A3000D0EB080085F0004568EB0101171A73EB55
:100A40000107EBD3761E001849415E45F6DA50EAFD
:100A5000010209D0CDE900E5002213460296FFF716
:100A600075FF03B0BDE8F08F20460099F9E7C1F3A8
:100A70000A52C1F3130140F2FF3341F480119A424C
:100A800002DA00200146704740F233439A42A2F254
:100A9000334202DC5242FFF745BBFFF7F0BE0000D5
:100AA000064C074D06E0E06840F0010394E80700BB
:100AB00098471034AC42F6D3FFF71CFB684C000893
:100AC000884C000870B521F0004303430CD0C1F3FB
:100AD0000A550024D5EB040564EB0403D617AD1AC0
:100AE000B34102DB0020014670BD201841EB0251EA
:100AF00070BD10B5044603F089FC6C2003F05CFC6B
:100B000003F0C0FCE0B203F057FC03F0BBFC03F0C1
:100B10007DFC6D2003F050FC03F0B4FC012003F0D9
:100B20001FFC0446002003F01BFC40EA042403F0F1
:100B30008DFC204610BD000070B5104CA06810F070
:100B4000FF4F17D1E078FFF785FD0D4A0D4BFFF7FA
:100B500086FCFFF71DFE05460B484FF0FF3100688D
:100B6000FFF7CAFB2A46002103F02EFDE07810B102
:100B70000020E07070BD0120FBE70000480000206D
:100B80009C742D3852C1F03F0800002010B5084C6D
:100B900040B1410807480268D162C16001F08AFA99
:100BA000012003E0034801F0ADFA0020207010BDE1
:100BB00048000020E400002070B50D4606460024E1
:100BC0000BE000BF35F82400FFF7E0FF05EB8400E1
:100BD000408800F0FFFC641CE4B2B442F2D3BDE8EC
:100BE00070400020FFF7D2BFFEE7000000B58BB0D9
:100BF00000200121CDE906010891009001900290AA
:100C00000390059004906946054800F0C1F9044836
:100C100000F0ACFC0221024800F044F90BB000BD2A
:100C2000BC00002010B5024611488AB00C4640783E
:100C3000104900F580700090002002900390082079
:100C400004901046FFF7E8FAFFF711FD06900A49F5
:100C50002046FFF7E1FAFFF70AFDADF81C0008ABEC
:100C600006AA6946054800F02FF90AB010BD000039
:100C70004800002000007A4400002041BC00002011
:100C80007047704706490020C8610648016941F075
:100C900004010161016941F04001016170470000F8
:100CA000C001002000200240064A0021D16106490F
:100CB0000A6942F002020A614861086940F0400096
:100CC00008617047C001002000200240044B002250
:100CD000DA61044A136943F001031361018070472C
:100CE000C00100200020024014480022C168CB0649
:100CF000134904D5CA6942F00202CA611022C368CE
:100D00005B0705D5CB6943F00103CB6142F00402D8
:100D1000C369DB0707D0CB6943F00403CB61C1692A
:100D200021F00101C161A2F58071013901D0C260D9
:100D30007047C16921F00101C16170470020024084
:100D4000C001002070B5054600F0F2FD0646114CCA
:100D500009E0681C07D025B100F0EAFD801BA8421D
:100D600001D9032070BDE068C007F2D1E0688006B9
:100D700001D52020E060E068C00605D4E069C00726
:100D800002D1E068400703D5FFF7AEFF012070BD38
:100D9000002070BD0020024000B585B000F0CAFC04
:100DA00007490020029100900121CDE9031004A918
:100DB000684600F021FC00F073FC05B000BD0000A7
:100DC0000078000804480168B1F1A53F01D0002077
:100DD0007047007970470000007C0008084B10B590
:100DE0001C68B4F1A53F02D04FF0FF3010BD5C6825
:100DF000046098680860D8681060002010BD00008A
:100E00000078000830B585B0044600F093FC00205F
:100E10000D4D012102950090CDE9031004A968460B
:100E200000F0EAFB4FF0A53200232946022000F033
:100E300041FC22460023291D022000F03BFC00F06B
:100E40002FFC05B030BD0000007C0008F0B58BB071
:100E500014460E46074600F06DFC0020104D01219F
:100E600008950690CDE909100AA906A800F0C4FB70
:100E7000CDE902644FF0A530CDE9000700246E46AD
:100E800005EB840156F824200023022000F012FC18
:100E9000641CE4B2142CF3D300F002FC0BB0F0BDE0
:100EA0000078000890F82020012A07D0022A05D0F7
:100EB000416A41F480214162012070470068426923
:100EC0000A43426100207047F0B590F82050046852
:100ED000A468012D05D0022D03D0416A41F4802180
:100EE00053E014F0406F01D1E5004BD5C4F3016429
:100EF000022C03D9416A41F4000146E00125A540D6
:100F00001D608D684FF4C0739DB1CE6835434E6847
:100F100045EAC605066803EB0417F5514FF4C275A0
:100F2000076805EB04150E697E51097D012905D07E
:100F300009E00E88CD6845EA4655EBE701684E5951
:100F400046F480764E511179D2F805504FF4C676AA
:100F500041EA0525016806EB04168D511178D2F897
:100F600001204FF4C47541EA0221026805EB041523
:100F70005151006803EB0411425842F00102425003
:100F80000020F0BD416A41F4001141620120F0BD32
:100F900010B590F820300268012B07D0022B05D045
:100FA000416A41F480214162012010BDD2F8000263
:100FB00040F00100C2F80002087D00F01F0301208C
:100FC0009840D2F81C328343C2F81C32CB69B3B9C3
:100FD000D2F80C328343C2F80C328C894B6864F32C
:100FE0001F434C6902EBC404C4F840320C890B68FF
:100FF00064F31F434C6902EBC404C4F84432CB6968
:10100000012B16D1D2F80C320343C2F80C320C88F3
:101010004B6864F31F434C6902EBC404C4F84032CC
:101020000C89CB6864F31F434C6902EBC404C4F819
:1010300044328B69002BD2F804320FD053EA0003FC
:10104000C2F804320B69002BD2F8143208D00343E3
:10105000C2F81432096A012904D008E08343EFE79B
:101060008343F5E7D2F81C120143C2F81C12D2F8F0
:10107000000220F00100C2F80002002010BD7047FD
:1010800030B590F82040012C05D0022C03D0416AE5
:1010900041F480215DE00468002955D02469A4074B
:1010A00054D04FF4D874056804EB01142D5915F091
:1010B0000405956005682D594ED0ED08556005680A
:1010C0002C5904F00204D4604FF4DA74056804EB80
:1010D00001142D5905F00F05156105682D59C5F34B
:1010E0000725956105682C59240C54614FF4DC7276
:1010F000046802EB0112A4581C700468A458240A66
:101100005C700468A458240C9C700468A258120EE9
:10111000DA704FF4DE72046802EB0112A4581C71FD
:101120000468A458240A5C710468A458240C9C71B7
:101130000468A258120EDA71006881B1016941F0A9
:1011400020010161002030BDE468A8E7416A41F454
:1011500000114162012030BD6D0D1560AFE7C1681F
:1011600041F02001C160EDE72DE9F05F0546006820
:1011700000244669D0F804908768D0F80CB0D0F805
:1011800010A0D0F81880F10748D0F90714D0012139
:101190008160B80703D5284600F015FA0CE07807FF
:1011A00002D54FF4006407E0380702D54FF48054AD
:1011B00002E0284600F006FAF80516D529684FF433
:1011C00080708860B80503D5284600F0FEF90CE071
:1011D000780502D544F4005407E0380502D544F4FC
:1011E000804402E0284600F0EFF9F80316D529689C
:1011F0004FF480308860B80303D5284600F0E7F943
:101200000CE0780302D544F4004407E0380302D52B
:1012100044F4803402E0284600F0D8F9300707D5BE
:101220005FEACB6004D52968102044F40074C860DC
:1012300070074FF0080707D55FEA0B7004D52868E0
:10124000C760284600F05AF9B00706D52868C0687C
:10125000800702D0284600F053F9700607D55FEAF0
:10126000CA6004D52968102044F480640861B0067F
:1012700007D55FEA0A7004D528680761284600F0A0
:1012800071F9F00606D528680069800702D0284663
:1012900000F069F9B00308D55FEAC96005D529688F
:1012A00010204860284600F05FF9F00307D55FEA98
:1012B000097004D528684760284600F089F9300491
:1012C00046D55FEA497040D5F00504D55FEAC8709D
:1012D00001D044F00104B00504D55FEA887001D55F
:1012E00044F00204700504D55FEA487001D544F06B
:1012F0000404300529D518F0700F26D008F07000CE
:10130000402815D006DC102809D020280AD0302823
:1013100016D10AE050280ED0602811D10EE044F01A
:1013200008040DE044F010040AE044F0200407E053
:1013300044F0400404E044F0800401E044F480748C
:101340002868816921F07001816129680420486062
:10135000002C05D0686A204368622846FFF78FFE9C
:10136000BDE8F09F70B5040003D094F8200010B1E0
:1013700004E0012070BD204600F082F8206801687A
:1013800021F00201016000F0D3FA0546052604E0D1
:1013900000F0CEFA401B0A2811D820684068800768
:1013A000F6D42068016841F00101016000F0C0FA44
:1013B00005460BE000F0BCFA401B0A2806D9606A1B
:1013C00040F40030606284F82060D2E72068406812
:1013D000C007EFD0207E0128206801683DD021F0B1
:1013E00080010160607E01282068016838D021F00A
:1013F00040010160A07E01282068016833D021F0FF
:1014000020010160E07E0128206801682ED041F0B3
:1014100010010160207F01282068016829D021F097
:1014200008010160607F01282068016824D021F054
:1014300004010160D4E902010843D4E90412114314
:1014400008436168491E08432168C8610020606242
:10145000012084F82000002070BD41F08001C0E729
:1014600041F04001C5E741F02001CAE721F0100139
:10147000CFE741F00801D4E741F00401D9E70000CB
:1014800010B586B00021009101910291039100688E
:10149000174988422AD11748C16941F00071C161DA
:1014A000C16901F000710491816941F00401816119
:1014B0008069114C00F0040004904FF4006000902B
:1014C0006946204600F04AF9A014009002200190DD
:1014D000032003906946204600F040F900220121D4
:1014E000142000F091FA142000F080FA06B010BD2C
:1014F00000640040001002400008014070470000F6
:1015000030B589B007AB6A460021FFF7B9FD002866
:1015100019D10099114D124C07A8B1F5807F14D054
:10152000B1F5007F0FD1617804290CD900EB41009F
:1015300030F90A0CFFF774F82946FEF79FFEA06009
:1015400000F0F6F9606109B030BD61780429FAD87D
:1015500000EB410030F9020CECE7000000007A4497
:1015600048000020704770477047000070B504467F
:1015700090F82000012804D0606A40F400206062E6
:1015800018E0022084F820002068016821F00101A1
:10159000016000F0CDF905460EE000BF00F0C8F98B
:1015A000401B0A2808D9606A40F4003060620520B8
:1015B00084F82000012070BD20684068C007EDD18C
:1015C000606270BD704770477047704770477047E2
:1015D0007047000070B5044600F0AAF90546601C8B
:1015E00002D004480078044400F0A2F9401BA04255
:1015F000FAD370BD640000202DE9F0470546264867
:101600000F460126017E01290FD001218146017676
:101610002868DFF888804CF25034022808D0A246AF
:101620002046FFF78FFBA8B131E00220BDE8F0872C
:101630002046FFF787FB08BB0120FFF723FB20466E
:10164000FFF780FBD8F81010064621F00401C8F817
:1016500010101CE04FF0FF303860AC6811E02046FD
:10166000FFF722FB5046FFF76DFBD8F8101006007D
:1016700021F00201C8F8101001D03C6007E004F529
:101680008064D5E9020100EB8120A042E7D8002167
:1016900089F818103046C9E7C00100200020024038
:1016A0000348016941F0800101610020704700009A
:1016B000002002402DE9F05F07461C4888460024C0
:1016C000017E15461E46012909D001218146017679
:1016D0004CF2503A5046FFF735FB18B122E0022099
:1016E000BDE8F09F012F02D0022F00D00427D3467F
:1016F000DFF83CA0220128463146FEF713FD81B2F7
:1017000008EB4400FFF7E2FA5846FFF71BFBDAF854
:10171000102022F00102CAF8102018B9641CE4B2AB
:10172000BC42E7D3002289F81820D9E7C001002085
:1017300000200240064900200A69120607D5054A22
:101740004A60054A4A600969090600D501207047C8
:101750000020024023016745AB89EFCD2DE9F84F0A
:10176000DFF89C91002409F1040A0AF1040B2346D6
:101770000F270BF1040EBBE00125A5402A40AA4229
:1017800076D1DFF880C14E68A6EB0C0866452BD0F9
:101790000DDC032E34D005DC36B3012E19D0022E19
:1017A0002FD11BE0112E16D0122E2AD119E0B8F538
:1017B000881F19D006DCB8F5803F15D0B8F5801F1A
:1017C0001FD111E0B8F5001F0ED0B8F5041F18D1D5
:1017D0000AE0CB6815E0CB681B1D12E0CB6808332C
:1017E0000FE0CB680C330CE08B682BB1012B4FF072
:1017F000080303D0456104E0042302E0056100E032
:101800000023FF2A01D8064601E000F104064FEA52
:10181000840501D9A5F12005D6F8008007FA05FC5A
:1018200028EA0C0803FA05F548EA0508C6F800801E
:101830004D68ED005BD5344DAE6946F00106AE61F2
:10184000AD6924F0030605F0010500952F4D06EB68
:10185000050CDCF80850A607360F07FA06F825EA4B
:101860000805DFF8AC80404503D14FF0000810E0D8
:101870003DE0DFF8A080404502D14FF0010808E0CC
:10188000DFF89480404502D14FF0020801E04FF0AC
:10189000030808FA06F848EA0508CCF808804D68FD
:1018A000D9F80060ED034D4601D5164300E096439C
:1018B0002E604D68DAF80060AD03554601D5164339
:1018C00000E096432E604D68DBF80060ED025D4657
:1018D00001D5164300E096432E604D68DEF80060A7
:1018E000AD02754601D5164300E096432E60641C98
:1018F0000A6832FA04F57FF43FAFBDE8F88F0000C4
:1019000000040140000011100010024000000140DE
:1019100000080140000C01400010014080680840B0
:1019200000D0012070470AB1016170470904FBE74C
:101930000148806870470000640000200248816808
:10194000027811448160704764000020074810B598
:10195000016841F010010160032000F075F80020DB
:1019600000F006F800F024F8002010BD002002402E
:1019700070B50D4D04464FF47A712878B1FBF0F044
:101980000A490968B1FBF0F000F0CCFA48B9102C14
:1019900007D200222146501E00F036F800206C606D
:1019A00070BD012070BD00006400002070000020A8
:1019B0000C4808B5816941F001018161816901F03C
:1019C00001010091C16941F08051C161C06900F01D
:1019D000805000900448416821F0E06141F00071BE
:1019E000416008BD0010024000000140002809DBF2
:1019F00000F01F02012191404009800000F1E02029
:101A0000C0F8001170470000F0B40E4B1B680C4684
:101A1000C3F30223C3F10705042D00D90425191DC2
:101A2000072901D2002300E0DB1E012606FA05F19A
:101A3000491E214099409E40761E16403143F0BC1D
:101A400001F084BA0CED00E0064900F007020868D6
:101A50004FF6FF03184040EA0220034A1043086093
:101A6000704700000CED00E00000FA052DE9F0479A
:101A70000F46050061D0434E306800F00700B842C1
:101A800009D2306820F0070038433060306800F039
:101A90000700B84251D128683B4C810712D5400756
:101AA00003D5606840F4E06060602878000703D5E3
:101AB000606840F4605060606068A96820F0F000E1
:101AC000084360602878C00728D06868012810D0D3
:101AD0002168022810D0890700292EDA616821F0D8
:101AE000030101436160FFF723FF804641F288391B
:101AF0000DE021688903EFE78901EDE7FFF718FFA3
:101B0000A0EB0801494502D90320BDE8F0876068D1
:101B1000696800F00C00B0EB810FEFD1306800F085
:101B20000700B8420BD9306820F007003843306016
:101B3000306800F00700B84201D00120E5E72878BE
:101B4000400705D56068E96820F4E06008436060FC
:101B50002878000706D56068296920F4605040EABB
:101B6000C100606000F018F86168084AC1F3031111
:101B7000515CC8400649086006480068FFF7F8FE57
:101B80000020C2E70020024000100240B84B0008CD
:101B9000700000206800002012A185B00FC98DE8F8
:101BA0000F0014A0144A006804905168134801F013
:101BB0000C03042B10D0082B0ED1C1F38343C903AF
:101BC0001DF803000AD5516804AAC1F34041515CD5
:101BD0000A4A5043B0FBF1F005B07047084948434A
:101BE000FAE7000002030405060708090A0B0C0DBA
:101BF0000E0F1010010200000010024000127A00C7
:101C000000093D002DE9F84F040070D02078C04D48
:101C1000C00749D06868C0F38100012807D0686810
:101C2000C0F38100022809D16868C00306D528687E
:101C3000800339D560680028E7D035E06068B0F5EA
:101C4000803F0BD010B1B0F5A02F11D0286820F440
:101C500080302860286820F4802002E0286840F462
:101C600080302860606890B1FFF762FE06460AE0A7
:101C7000286840F480202860F0E700BFFFF758FE96
:101C8000801B642873D828688003F7D50CE0FFF721
:101C90004FFE064605E000BFFFF74AFE801B6428A2
:101CA000F0D828688003F7D420789A4E80074FF048
:101CB00001094FF0000839D5686810F00C0F07D003
:101CC0006868C0F38100022809D16868C00306D49F
:101CD0002868800714D52069012808D110E0206900
:101CE000B0B1C6F80090FFF723FE074605E00AE111
:101CF000FFF71EFEC01B0228C4D828688007F7D54E
:101D00002868616920F0F80040EAC10028600DE011
:101D1000C6F80080FFF70CFE074604E0FFF708FE58
:101D2000C01B022823D828688007F7D42078000732
:101D30002CD57948A169D9B1C0F80090FFF7F8FD1A
:101D4000074604E0FFF7F4FDC01B02280FD8686ABD
:101D50008007F7D571484FF4FA510068B0FBF1F0F5
:101D6000009000BF0098411E0091FAD20EE080E082
:101D7000C0F80080FFF7DCFD074604E0FFF7D8FD60
:101D8000C01B022875D8686A8007F7D420784007FE
:101D900060D5E8690027C00008D4E86940F08050A9
:101DA000E861E869012700F0805000905C48016814
:101DB000C90513D40168834641F480710160FFF7BF
:101DC000B7FD824606E000BFFFF7B2FDA0EB0A00B8
:101DD00064284ED8DBF80000C005F5D5E06801287E
:101DE0000AD008B1052813D0286A20F00100286223
:101DF000286A20F0040002E0286A40F0010028620E
:101E0000E06841F2883B98B1FFF792FD82460BE013
:101E1000286A40F004002862EEE700BFFFF788FD63
:101E2000A0EB0A0159455AD8286A8007F6D50CE07C
:101E3000FFF77EFD824605E0FFF77AFDA0EB0A0181
:101E400059454CD8286A8007F6D41FB1E86920F0BC
:101E50008050E861E06988B36968C1F381010229B3
:101E600044D00228C6F8608004D0FFF761FD044624
:101E700038E034E0FFF75CFD074604E0FFF758FD6B
:101E8000C01B02282BD828688001F7D4206AB0F53F
:101E9000803F05D16868A16820F40030084368607D
:101EA000D4E908010843696821F4741108436860A3
:101EB000C6F86090FFF73CFD044606E025E000BF51
:101EC000FFF736FD001B022809D828688001F7D5E6
:101ED0001BE000BFFFF72CFD001B022802D90320E6
:101EE000BDE8F88F28688001F4D40EE00128F7D00F
:101EF0006868226A00F48031914204D1616A00F47A
:101F00007010884201D00120EAE70020E8E70000D5
:101F10000010024000004242800442427000002053
:101F20000070004010B5401EB0F1807F01D3012049
:101F300010BD4FF0E02460610F21601701F006F83A
:101F40000020A06107202061002010BD704770476D
:101F500070B590F83C20012A23D0012480F83C4041
:101F6000022280F83D2003685A689D6822F07006BE
:101F70000A6832435A600C4B02689A4205D0B2F1AB
:101F8000804F02D0094B9A4204D1496825F0800362
:101F90001943916080F83D40002180F83C100846CC
:101FA00070BD022070BD0000002C01400004004004
:101FB00010B5040003D094F83D0010B107E00120F3
:101FC00010BD002084F83C00204600F01FF80220DD
:101FD00084F83D00211D206800F078FE012084F87F
:101FE000460084F83E0084F83F0084F8400084F8FE
:101FF000410084F8420084F8430084F8440084F8E7
:10200000450084F83D00002010BD000008B5264AB8
:1020100001682648914226D1816941F400618161BD
:102020008069002200F40060009001211820FFF771
:10203000EBFC1820FFF7DAFC002201211920FFF742
:10204000E3FC1920FFF7D2FC002201211A20FFF740
:10205000DBFC1A20FFF7CAFC002201211B20FFF73E
:10206000D3FC1B2013E0B1F1804F14D0104A9142F1
:1020700019D1C16941F00201C161C069002200F0BB
:102080000200009001211D20FFF7BEFC1D20BDE8CD
:102090000840FFF7ABBCC16941F00101C161C069F3
:1020A00000F00100009008BD002C0140001002402B
:1020B0000004004090F83D10012901D00120704734
:1020C000022180F83D100168CA6842F00102CA602E
:1020D00000680A49884205D0B0F1804F02D0084913
:1020E000884204D1816801F00701062903D0016804
:1020F00041F001010160002070470000002C014008
:10210000000400400168CA6822F00102CA60016848
:102110000A6A41F211131A4207D10A6A9B101A4245
:1021200003D10A6822F001020A60012180F83D1003
:102130000020704770B5044690F83C00012817D085
:10214000012584F83C50022084F83D002068826814
:1021500022F0770222F47F4282600868502830D053
:102160000DDC20284DD005DC98B310283BD148E089
:10217000022070BD302844D0402834D139E0602896
:1021800028D0702806D0B0F5805F2CD0B0F5005F65
:1021900029D10AE0CB68D1E90121206800F0D1FD06
:1021A0002068816841F0770109E0CB68D1E901211D
:1021B000206800F0C6FD2068816841F4804181609C
:1021C00011E0CA684968206800F070FE502120685C
:1021D00007E016E0CA684968206800F078FE6021D0
:1021E000206800F0B8FD84F83D50002084F83C00E1
:1021F00070BDCA684968206800F058FE4021206818
:10220000EFE7226801461046EBE7704770B50446D9
:10221000006801694FF00005C943890715D4C168FA
:10222000C943890711D4E91E016101202077206884
:1022300080698007204602D0FFF7E7FF04E000F046
:10224000BDF8204600F04CF9257720680169C943A4
:10225000490717D4C168C943490713D46FF0040173
:102260000161022020772068806910F4407F2046B9
:1022700002D0FFF7CAFF04E000F0A0F8204600F00B
:102280002FF9257720680169C943090716D4C16869
:10229000C943090712D46FF00801016104202077B7
:1022A0002068C0698007204602D0FFF7AEFF04E037
:1022B00000F084F8204600F013F9257720680169C2
:1022C000C943C90617D4C168C943C90613D46FF0FE
:1022D00010010161082020772068C06910F4407F58
:1022E000204602D0FFF791FF04E000F067F8204697
:1022F00000F0F6F8257720680169C943C90708D1BD
:10230000C168C943C90704D1891E0161204600F094
:1023100033F920680169C943090609D4C168C94372
:10232000090605D46FF0800101612046FFF70EFE1B
:1023300020680169C943490609D4C168C9434906EF
:1023400005D46FF040010161204600F016F92068C5
:102350000169C94389060BD4C168C943890607D4FA
:102360006FF0200101612046BDE87040FFF7EFBD2E
:1023700070BD000000B585B000210091019102916F
:1023800003910068B0F1804F11D10A48816941F092
:10239000040181618069694600F00400049007200F
:1023A00000900220019003900348FFF7D7F905B091
:1023B00000BD00000010024000080140704770B5E9
:1023C000044690F83C000D4601280AD0012084F80C
:1023D0003C0042B1042A18D0082A2AD00C2A4DD138
:1023E00039E0022070BD206800F0BEFC20688169E1
:1023F00041F0080181612068816921F00401816157
:10240000206881692A69114311E0206800F0D4FC3A
:102410002068816941F4006181612068816921F44B
:1024200080618161206881692A6941EA02218161B4
:1024300024E0206800F0ECFC2068C16941F008014C
:10244000C1612068C16921F00401C1612068C169CE
:102450002A69114311E0206800F006FD2068C16977
:1024600041F40061C1612068C16921F48061C161EA
:102470002068C1692A6941EA0221C161002084F80B
:102480003C0070BD10B5040003D094F83D0010B1BD
:1024900007E0012010BD002084F83C00204600F039
:1024A0001EF8022084F83D00211D206800F00EFC7B
:1024B000012084F8460084F83E0084F83F0084F848
:1024C000400084F8410084F8420084F8430084F816
:1024D000440084F8450084F83D00002010BD70479A
:1024E0007047000010B50446022249B104290ED0FD
:1024F000082913D094F84100012816D0012010BDFE
:1025000094F83E000128F9D184F83E200FE094F8B9
:102510003F000128F2D184F83F2008E094F8400001
:102520000128EBD184F8402001E084F84120012209
:10253000206800F0F9FB0E492068884203D1426C04
:1025400042F4004242642068884205D0B0F1804FD6
:1025500002D00849884204D1816801F007010629A8
:1025600003D0016841F001010160002010BD0000AE
:10257000002C01400004004070477047FEE70C202B
:10258000FEF7B7BA2DE9F0418846040032D0E6697B
:1025900021683046FDF740FE6060054630466169BF
:1025A000FDF73AFE216AFDF7DFFDE0600746616A4C
:1025B000FDF7DAFD01463846FDF760FE0646A061EC
:1025C00029464046FDF722FE3146FDF725FE294605
:1025D000FDF7CAFD0546A06031464FF07E50FDF77D
:1025E00015FE3946FDF718FE20612560606128461A
:1025F000BDE8F0810020FBE7002303604361C0E9F0
:1026000008124FF07E51C161436081627047000043
:102610002DE9F04108212B48FFF780F9DFF8A88069
:102620002A4C4FF4FA764FF40057A0B120790025D8
:1026300058B3FFF77DF9A16940F66D72401AA0F119
:10264000330191422AD2B0FBF6F0401CC0B2607058
:10265000FEF7D8FB2BE02079012568B1FFF768F978
:10266000A169401AB0F57A6F10D2B0FBF6F106FB03
:10267000110064280ED30FE0FFF75AF9A061002083
:102680001BE039464046FFF74EF917E041F2707102
:10269000884201D20122F4E70022F2E7A0F57A6035
:1026A000B0F5FA6F03D2FEF777FB00F0D9FA0022FB
:1026B00039464046FFF737F90120A0702571BDE883
:1026C000F081000000080140001001404800002097
:1026D00070B5174CA078002828D060784FF47A7134
:1026E000C0EB001000EB800001EB8005FFF720F944
:1026F000B0FBF5F105FB110260784FF40051C0EB1F
:10270000001000EB80030B48B2EB830F09D24FF4AB
:102710009673B2FBF3F403FB1422642A01D2012264
:1027200000E00022BDE87040FFF7FDB870BD00007A
:102730004800002000100140104810B50E4901600B
:102740000221416000214FF420228160C0E9031280
:102750004FF4401242610176012242768176C276C0
:1027600001774177FEF7FEFD002803D0BDE8104059
:10277000FEF787BA10BD000000640040BC000020D6
:102780002DE9F04385B0002531480095019502956B
:102790000395816941F010018161816901F01001A7
:1027A0000491816941F004018161816901F00401B2
:1027B0000491816941F0080181618069254F00F031
:1027C00008004FF400540490002221463846FFF7D9
:1027D000AAF8DFF88480002210214046FFF7A3F812
:1027E000DFF878900122C0214846FFF79CF800945A
:1027F00001AA0124022682E8700069463846FEF7E5
:10280000ADFF0820CDE90005694602944046FEF779
:10281000A5FF10208DE8710069464046FEF79EFF37
:102820004020CDE90004032569464846CDE902452C
:10283000FEF794FF8020009001AA112082E8310069
:1028400069464846FEF78AFF05B0BDE8F083000000
:10285000001002400010014000080140000C01403F
:1028600010B586B000241648009401940294039495
:1028700004941249059401603F21C0E90114C46029
:10288000046144618461FFF793FB08B1FEF7F9F935
:102890004FF48050009069460948FFF74BFC08B19F
:1028A000FEF7EFF9049404A905480594FFF750FBDF
:1028B000002801D0FEF7E5F906B010BD002C01405C
:1028C000E400002010B58EB0002407940894099409
:1028D0000A940B941C2168460C94FDF73AFC264898
:1028E0004FF08041C0E90014202181604FF4A061C5
:1028F000C0E903148461FFF75BFB08B1FEF7C1F97F
:102900004FF48050079007A91B48FFF713FC08B14C
:10291000FEF7B7F91848FFF7B5FD08B1FEF7B1F9B2
:102920000B940BA914480C94FFF712FB08B1FEF7A7
:10293000A8F96020CDE900040294002269460E48FF
:102940000494FFF73CFD08B1FEF79BF904226946A9
:102950000948FFF734FD08B1FEF793F908226946EC
:102960000548FFF72CFD08B1FEF78BF90248FFF789
:1029700001FD0EB010BD00002C01002010B586B086
:10298000002416480094019402940394049412497C
:10299000059401603F21C0E901146421C0E90314DA
:1029A0008461FFF705FB08B1FEF76BF94FF4805027
:1029B000009069460948FFF7BDFB08B1FEF761F9D1
:1029C000049404A905480594FFF7C2FA002801D031
:1029D000FEF757F906B010BD000400407401002056
:1029E00010B5064C4FF480502060FFF7C8FDE06042
:1029F000A06000206060206110BD00003000002059
:102A0000FEE7000010B5FEF793FF07494A69821AF6
:102A10000020B2F5FA7F04D94A79002A02D18860F1
:102A20000120487110BD00004800002070B5134E11
:102A3000134C356921682846FDF7E8FB1149FDF77D
:102A4000EBFB1149FDF71AFCFDF776FE0F4A104B20
:102A5000FDF777FD00220F4BFDF701FDFDF798FE16
:102A60000021F06004EB8100406844F82100491C1B
:102A7000C9B20429F6D3256170BD000048000020CA
:102A80007C00002000007A440000A040EA2E44545C
:102A9000FB21194000004E4010B50C4C0CA000F07A
:102AA00031FAD4E90210FDF799FE01D2A068E06086
:102AB0000720206100202060012210210748FEF736
:102AC00032FFBDE8104006A000F01CBA0000002054
:102AD0004D4F543A20496E69740D0A0000080140B8
:102AE0004D4F543A20456E61626C65206472697680
:102AF00065722E0D0A000000114A10B5114902F14D
:102B00001000FEF76BF9401C09D100F0CDFF30B189
:102B10000B480C49026809680069FEF797F901F053
:102B200083FB094908600520FEF754FD01F098FE7B
:102B300006490860BDE81040C820FEF74BBD000004
:102B4000000000201C00002044000020180000208D
:102B5000704770477047000010B500211148FFF71B
:102B6000C1FC04210F48FFF7BDFC08210D48FFF709
:102B7000B9FCFFF735FF0D490B48104C08600D49B3
:102B80000B4808600C4908600020A060FFF784FF34
:102B9000FFF7B2FFFEF716F9607000B90120607010
:102BA00010BD00002C010020000040410400002066
:102BB000CDCCDC40080000200C00002048000020A4
:102BC00010B500F005F8BDE81040FEF7B7BE0000F4
:102BD00070B5FFF71DFDFFF77BFDFFF727FFFFF740
:102BE00011FFFEF7A5FE074C074DC00703D0E168B3
:102BF0002868FEF717F805482968FFF7C3FC20612D
:102C000070BD000048000020180000209000002047
:102C100030B58FB028216846FDF79BFA14210AA829
:102C2000FDF797FA022401200490009410200590EB
:102C300000254FF46010CDE9085007946846FEF770
:102C4000E1FF0AA90F2081E831006002CDE90D05FE
:102C500002210AA8FEF70AFF0FB030BD704700003E
:102C6000012080F31388BFF34F8F05480168054AA0
:102C700001F4E06111430160BFF34F8F00BFFDE736
:102C80000CED00E00400FA050148FFF7BFBA0000B0
:102C9000E40000200148FFF7B9BA0000E40000207A
:102CA0000148FFF7B3BA0000E400002010B5FDF7BB
:102CB00043FFBDE810400148FFF7A8BAE400002038
:102CC0000148FFF7A3BA00007401002070B5026844
:102CD000134B144C4FF08046984203D0B04201D0C1
:102CE000A04203D122F070054A682A43984203D0DB
:102CF000B04201D0A04203D122F44074CA682243FA
:102D00004C6922F08002224302608A68C2620A682B
:102D10008262984201D1096901630121416170BD5C
:102D2000002C01400004004010B501F01F030121F8
:102D3000046A99408C430462016A9A40114301621B
:102D400010BD10B5846842EA032224F47F440A438C
:102D50002243826010BD826822F070020A4342F072
:102D6000070181607047000030B5026A22F001025D
:102D70000262026A4368846924F073050C682C437C
:102D800022F002058A682A430A4DA8420BD122F09C
:102D90000805CA6823F440732A434D6922F00402EF
:102DA0001D438B692B434360846149684163026220
:102DB00030BD0000002C014030B5026A22F0100244
:102DC0000262026A436884690D6824F4E64444EAB6
:102DD00005248D6822F0200242EA05120B4DA8421C
:102DE0000ED1CD6822F0800242EA05124D6923F42B
:102DF000406343EA85038D6922F0400243EA85037C
:102E00004360846149688163026230BD002C0140E7
:102E100030B5026A22F480720262036A4268C469B1
:102E200023F4007324F073050C682C438D6843EA87
:102E300005230C4DA8420ED1CD6823F4006343EA6C
:102E400005234D6922F4405242EA05128D6923F4AC
:102E5000806342EA05124260C4614968C16303624B
:102E600030BD0000002C014030B5026A22F48052CF
:102E70000262046A4268C3690D6823F4E64343EAC8
:102E800005238D6824F4005444EA0534064DA84215
:102E900004D14D6922F4804242EA85124260C36146
:102EA00049680164046230BD002C014010B5036A1A
:102EB000046A24F001040462846924F0F00444EA02
:102EC000021423F00A020A438461026210BD10B5A5
:102ED000036A23F0100303628369046A23F47043D6
:102EE00043EA023224F0A00343EA01118261016245
:102EF00010BD00000148FEF737B90000BC000020FB
:102F0000FEE700000FB4054B10B503A9044A029870
:102F100000F096F910BC5DF814FB00002542000893
:102F200074000020490050EAC12018BF04204A0D57
:102F300018BF40F0010040F2FF72B2EB515F08BFD2
:102F400040F00200012808BF052070470907090E5C
:102F5000002804DB00F1E02080F80014704700F046
:102F60000F0000F1E02080F8141D70472DE9F041BA
:102F70004F1E00EBC7010446D1E9000115461E466D
:102F800037F006020DD02A463346FDF768FA7F1E59
:102F900004EBC703D3E90023FDF7BAF937F00602C3
:102FA000F1D1022F25D0042F13D0062F18BFBDE872
:102FB000F0812A463346FDF752FAD4E90A23FDF799
:102FC000A7F92A463346FDF74AFAD4E90823FDF764
:102FD0009FF92A463346FDF742FAD4E90623FDF766
:102FE00097F92A463346FDF73AFAD4E90423FDF768
:102FF0008FF92A463346FDF732FAD4E90223FDF76A
:1030000087F92A463346FDF72AFAD4E90023BDE8BA
:10301000F041FDF77DB90122FDF754BDFDF778B908
:103020000022134610461146FDF78BBA024A0020D3
:103030001107FDF747BD000001FDFFFF02E008C8D2
:10304000121F08C1002AFAD170477047002001E022
:1030500001C1121F002AFBD170470000014908601E
:10306000704700007800002010B504460846FDF7C0
:10307000D7FA2146BDE81040FDF7CEB82DE9FF5F35
:1030800082B00021DDE90430020DDDF840B00343D9
:1030900018D044F61050A2F2FF3242431514119892
:1030A00001281FD0A5EB0B00401C5FEA000A4FF07F
:1030B00000064E4FDFF83891B046504615D5CAF19C
:1030C000000413E0119801244AA3012801D16FEAFA
:1030D0000B010298119AC0E90031C0E9024206B022
:1030E000BDE8F09FCBF10000DFE704460021404A35
:1030F000491842EB0450CDE9001012E0E00707D078
:1031000032463B4640464946FDF7A9F98046894686
:1031100032463B4610461946FDF7A1F906460F46D2
:103120006410002CEAD1DDE90401DDE90023BAF1E5
:10313000000F06DAFDF793F942464B46FDF78FF98B
:1031400005E0FDF7FEF942464B46FDF7FAF9044665
:103150000E460022284BFDF703FB03D84FF0FF304B
:10316000014607E00022254B20463146FDF7D0F806
:10317000FDF77DFC102409E0002C0ADB0A22002365
:10318000FDF74CFB039B30321A55641E50EA0102D6
:10319000F2D1641C039AC4F111031444119A012A58
:1031A00003D0012208430DD10AE0084304D00020D7
:1031B0004FF0110B119072E7A3EB0B056D1E0DE0A4
:1031C0005B4504DD4FF0000205F1010504E003DA80
:1031D0004FF00002A5F10105002AECD002981199E8
:1031E000C0E90231C0E9004579E700000000144061
:1031F0000000F03F300000000000F0430000E03F1E
:1032000070B5FDF799FA0C4C0C4D22462B4600F098
:10321000BFFFFDF7BDFA10F1FF4F02D2FDF78CFAA8
:1032200005E0FDF789FA22462B46FDF771F8BDE867
:103230007040FDF7ADBA0000EA2E4454FB2119405E
:103240002DE9FF4F95B09B468946064600250FE2C3
:10325000252877D100242746F84A0121059400E06B
:10326000044316F8013F203B01FA03F01042F7D166
:1032700030782A2811D06FF02F033078A0F1300277
:10328000092A16D8059A44F0020402EB820203EBE5
:1032900042021044761C0590EFE759F8042B059282
:1032A000002A03DA504244F40054059044F002042A
:1032B000761C30782E2816D116F8010F44F004043D
:1032C0002A280DD06FF02F023078A0F13003092B9F
:1032D00009D807EB870302EB4303C718761CF3E713
:1032E00059F8047B761C30786C280FD006DC4C280B
:1032F00017D068280DD06A2814D104E0742810D0A3
:103300007A280FD10DE044F400140AE044F480144C
:1033100001E044F440147278824202D104F5801432
:10332000761C761C307866280BD013DC582877D0B2
:1033300009DC002875D04528F6D04628F4D0472867
:103340001AD19DE118E0632835D0642879D065282A
:1033500012D195E1702873D008DC6728F1D0692874
:103360006FD06E280DD06F2806D1B5E073282CD011
:10337000752875D0782874D05A46179990476D1CD7
:1033800075E1C4F30250022809D003280DD0D9F802
:10339000001004280DD00D6009F1040967E1D9F887
:1033A0000010EA17C1E90052F6E7D9F800100D80C5
:1033B000F2E70D70F0E719F8041B8DF800100020FB
:1033C0008DF80100EA46012003E059F804AB4FF004
:1033D000FF3061074FF0000102D40DE008F1010158
:1033E0008846B9420FDA8045F8DB1AF80810002940
:1033F000F4D108E008F1010188468142FADB1AF8AD
:1034000008100029F6D105985B46A0EB0807214675
:103410003846179A00F094FA284400EB080507E0B4
:103420004DE029E10DE01AF8010B5A461799904733
:10343000B8F10108F7D25B4621463846179A13E1E6
:1034400042E00A220092C4F302524FF0000A022A1C
:1034500008D059F804CB032A4FEAEC710AD00DE0EA
:1034600029E02AE009F1070121F00702F2E802C190
:10347000914609E00FFA8CFC4FEAEC71042A03D163
:103480004FFA8CFC4FEAEC71002907DA0A4600215A
:10349000DCF1000C61EB02012D2202E0220504D5D3
:1034A0002B228DF80420012203E0E20701D0202224
:1034B000F7E7904659E00A2102E010220DE01021C2
:1034C0004FF0000A00910BE010224FF0000A44F088
:1034D00004040827009203E008224FF0000A00923B
:1034E000C4F30252022A05D059F804CB0021032A62
:1034F00008D009E009F1070121F00702F2E802C152
:10350000914605E01FFA8CFC042A01D10CF0FF0C57
:103510004FF00008220728D5702806D0009B83F0C2
:10352000100353EA0A0305D00EE040228DF8042070
:10353000012208E05CEA010206D030228DF8042066
:103540008DF8050002229046009B83F0080353EAA1
:103550000A030AD15CEA010201D1620705D53022D3
:103560008DF804204FF001087F1E582804D034A0A5
:1035700003900EA802900DE036A0F9E7534660468E
:10358000009AFDF74BF984460398825C0298401E2E
:10359000029002705CEA0100F0D1029806A9081AB4
:1035A00000F1200A600702D524F4803400E00127EE
:1035B000574502DDA7EB0A0000E0002000EB0A01FE
:1035C000009005984144401A0590E00306D45B46FC
:1035D0002146179A059800F0B3F90544002706E044
:1035E00001A85A46C05D179990476D1C7F1C47453E
:1035F000F6DBE0030CD55B462146179A059800F0F0
:103600009FF9054404E030205A46179990476D1CF5
:103610000099481E00900029F5DC08E00298029904
:103620005A460078491C0291179990476D1CBAF1CF
:103630000001AAF1010AF1DC65E10000092801009E
:103640003031323334353637383961626364656618
:1036500000000000303132333435363738394142DA
:10366000434445460000000000F058F90544761C2C
:10367000307800287FF4ECAD19B02846BDE8F08F13
:10368000620700D4062709F1070222F0070CFCE8C4
:103690000223E14603F000485FEA080C02D00FF273
:1036A000702C0DE05FEA045C02D50FF2682C07E095
:1036B0005FEAC47C02D00FF2602C01E0AFF2700C24
:1036C0004FF0FF3823F00043CDF850C065280CD0F0
:1036D00006DC452809D046281DD047283DD13DE0CD
:1036E000662818D067287ED138E00021112F01DB31
:1036F000112000E0781CCDE9000106A90EA8FFF713
:10370000BDFCDDE90F010E9A03910021009207F143
:10371000010A04914DE04FF000400097CDE90110FF
:1037200006A90EA8FFF7AAFCDDE90F0203920E9B83
:1037300011990022DDF80CA00093049211B9791CB4
:1037400000EB010AB7EB0A0004D4C0F1FF3007F127
:10375000010A0490AAEB0700019044E0012F00DA6F
:1037600001270021112F01DD112000E03846CDE9AD
:10377000000106A90EA8FFF781FCDDE90F010E9AF2
:103780000391002104910092BA4621070CD40399B9
:10379000514500DA8A46BAF1010F05DD009AAAF117
:1037A0000101515C302908D0B84202DA10F1040F4F
:1037B00006DA0121CDE9011015E0AAF10101E9E7DE
:1037C000002805DC049901440491AAEB000102E001
:1037D000411C514500DD8A460499401A401C019065
:1037E0004FF000400290200704D40198504501DBBF
:1037F000CDF8048000208DF84F0002980DF14F079E
:10380000B0F1004F25D02B200E9002984FF0020807
:1038100000280CDA404202902D200E9007E00A2189
:103820000298FCF7E5FF3031029007F8011DB8F16E
:103830000001A8F10108F2DC02980028EFD1791EFE
:103840000E980870307800F0200040F0450007F82E
:10385000020D12A8C01B00F107081498007800B1EF
:10386000012000EB0A01019801EBE0710598414449
:10387000401A401E0590E00306D45B462146179A85
:10388000059800F05DF805441498007818B15A4680
:10389000179990476D1CE00324D55B462146179A83
:1038A000059800F04DF805441CE00498002807DB5B
:1038B000DDE90301884203DD0098405C179901E0CF
:1038C000179930205A469047049805F10105401C8D
:1038D00004900198401E019004D12E205A46179959
:1038E00090476D1CBAF10001AAF1010ADDDC05E088
:1038F00017F8010B5A46179990476D1CB8F1000153
:10390000A8F10108F4DC5B462146179A0598ABE65E
:103910002D0000002B000000200000002DE9F041E8
:10392000044600251E461746880404D405E039469F
:103930002020B0476D1C641EF9D52846BDE8F081F3
:103940002DE9F041044600251E469046C80301D5E6
:10395000302700E02027880404D505E0414638469A
:10396000B0476D1C641EF9D52846BDE8F081000003
:103970002DE9F05F05463E4FDFF8F8A0DFF8F8903C
:103980003E4EDFF8FCB0FCF7D7FE3E4A3E4BFCF75C
:1039900066FD88460446BD4217DA00221346FCF74E
:1039A000DFFE204641464FF000024B4602D8FCF7AE
:1039B000AFFC01E0FCF74DFDFCF786FE56F8200059
:1039C000FCF737FE5A4653464CE03048854214DA3D
:1039D000002220461346FCF7C3FE204641464FF026
:1039E00000024B4602D8FCF793FC01E0FCF731FDE6
:1039F000FCF76AFEC0F5C770E0E72548254F854211
:103A00004FF000022046134615DAFCF7A9FE2046C7
:103A100041464FF000024B4602D8FCF779FC01E02A
:103A2000FCF717FDFCF750FE06EB8000A0F5805078
:103A3000D0F8C80912E0FCF793FE204641464FF04B
:103A400000024B4602D8FCF763FC01E0FCF701FDE5
:103A5000FCF73AFEC0F5477056F82000FCF7E9FD88
:103A60005A463B46FCF7FBFCBDE8F05FFCF790BE16
:103A7000DB0FC93FE2361A3F0000E03F8C480008E8
:103A80002D431CEB9CA223B9FCAB5F40DB0F4940EC
:103A9000E4CB9640E2361ABF0249A1EB6001FCF785
:103AA000BBBB0000865A375F2DE9F84F78A0FFF7BF
:103AB00029FADFF8F491DFF8F481DFF8F4A17D4E04
:103AC0007D4F7E4C00254FF4FA7B2846FCF7B1FD74
:103AD00032463B46FCF7C3FC00224B46FCF731FD67
:103AE00042465346FCF714FCFCF752FE0246002106
:103AF000E06800F069FD0220FDF76CFD6D1C5D457E
:103B0000E3DD00F091FB5D4600902846FCF791FD57
:103B100032463B46FCF7A3FC00224B46FCF711FD66
:103B200042465346FCF7F4FBFCF732FE0246002106
:103B3000E06800F049FD0220FDF74CFD6D1EE4D564
:103B400000F072FB002281461146104600F03CFD59
:103B5000C820FDF73FFD0098FCF7EEFD02460B463E
:103B600057A0FFF7CFF94846FCF7E6FD02460B46A3
:103B700058A0FFF7C7F949460098FCF747FB20F02B
:103B8000004549460098FCF71FFE04D05648DFF870
:103B90005C8185420ADC56A0FFF7B4F900221021AF
:103BA0005E48FDF7C0FE0020BDE8F88F494600984A
:103BB000FCF70AFE05D25AA0FFF7A4F94FF0FF3038
:103BC00003E05FA0FFF79EF90120206063A0FFF7EC
:103BD00099F92069FCF724FD2946FCF71DFBFCF749
:103BE000ABFD32463B46FCF734FC21F0004100229D
:103BF0004346FCF7B5FD17D25CA0FFF783F92846D2
:103C0000FCF79AFD02460B4630463946FCF799FC14
:103C100000224346FCF77CFBFCF756FD0146206181
:103C200058A0FFF76FF902E058A0FFF76BF9594A67
:103C30000021E06800F0C8FC4FF42F70FDF7CAFCCB
:103C400000F0F2FA05462068FCF7EAFC2946FCF78A
:103C5000E3FA2169FFF708FAFFF7D2FA4E4C206029
:103C60001420FDF7B7FC4DA0FFF74CF92068FCF7D6
:103C700063FD02460B464FA0FFF744F900221146B0
:103C8000104600F0A1FCC820FDF7A4FC01208BE742
:103C90004D4F543A20416C69676E2073656E736FA7
:103CA000722E0D0A0000000000407F40320D337F6D
:103CB0007CD91240EA2E4454FB2119400000002018
:103CC0006D69645F616E676C653D252E34660D0A13
:103CD00000000000656E645F616E676C653D252EB7
:103CE00034660D0A000000000AD7A33C0000E03F44
:103CF0004D4F543A204661696C656420746F206EA4
:103D00006F74696365206D6F76656D656E74206C88
:103D10006F6F703232322E0D0A0000000008014031
:103D20004D4F543A2073656E736F725F64697265AC
:103D30006374696F6E3D3D4343570D0A00000000F8
:103D40004D4F543A2073656E736F725F646972658C
:103D50006374696F6E3D3D43570D0A004D4F543AF1
:103D600020505020636865636B3A20006661696C7F
:103D7000202D20657374696D617465642070703ADC
:103D80000000000025640D0A000000004F4B210DCB
:103D90000A000000E4CB96401C0000204D4F543A2E
:103DA000205A65726F20656C65632E20616E676CAA
:103DB000653A0000252E34660D0A00002DE9F84F03
:103DC00004460D4621F0004000917349814211DC08
:103DD0007249884201DC06D12CB120462946BDE853
:103DE000F84FFFF718B96E48002DCCBF6D496E49EA
:103DF000BDE8F88F6D49814211DD6D498142D8BF20
:103E00004FF0FF366DDD20462946FFF78BF804287A
:103E100008BFFFF70BF920462946BDE8F88F654932
:103E2000654F25F00045814233DD6449814219DD4B
:103E3000002632464FF0804320462946FCF768FAB8
:103E400080468A46012220462946FCF73BFE002296
:103E50003B46FCF7FEFA42465346FCF772FB04462B
:103E60000D463EE001260022BA463B462046294642
:103E7000FCF74EFA80460F4600225346204629465C
:103E8000FCF7E7FA42463B46FCF75BFB04460D466F
:103E900027E04B4981421BDDDFF828A102260022E2
:103EA000534620462946FCF7DAFA00223B46FCF747
:103EB0002FFA80460F460022534620462946FCF73B
:103EC000C8FA42463B46FCF73CFB04460D4608E078
:103ED000032622462B4600203B49FCF732FB0446D2
:103EE0000D4622462B4610461946FCF7B8FA8B467B
:103EF000824602460B46FCF7B2FA074602463348B2
:103F000088460B4606217844FFF730F852465B4658
:103F1000FCF7A5FA82462E488B463A4643460521D1
:103F20007844FFF723F83A464346FCF798FA0246EE
:103F30000B46002E504659460CDAFCF7E9F92246AA
:103F40002B46FCF78CFA01B022462B46BDE8F04F19
:103F5000FCF782BAFCF7DCF922462B46FCF77FFA25
:103F60001C4A7A4402EBC603D3E90023FCF771FA3A
:103F700022462B46FCF76DFA174A7A4402EBC60339
:103F8000D3E90023FCF768FA009A002AB8BF81F051
:103F90000041BDE8F88F0000000010440000F07FF1
:103FA000182D4454FB21F93FFB21F9BF0000DC3FF1
:103FB0000000203E0000F33F0000F03F0000E63F1D
:103FC000008003400000F83F0000F0BF260D000015
:103FD000E40C0000820C00004A0C00002DE9F04DBA
:103FE0009446CCF1000423F000464CEA0404524FFE
:103FF00046EAD4749A46884621F00042BC4206D86C
:10400000454240EA050442EAD474BC4204D9BDE802
:10401000F04D6246FFF702B8AAF14055A5F17F6561
:1040200055EA0C040BD0022404EAAA74434DDFF8CD
:1040300010E144EAD87452EA000B04D00CE0BDE869
:10404000F04DFFF7BBBE002C14BF012CBDE8F08D76
:10405000022C30D0032C32D056EA0C0B0AD0BE42D0
:1040600020D1BA4209D126F0804622F08042334660
:10407000114617E000291ADB25E0DFF8C8B0FB4441
:10408000002C04BFDBE90001BDE8F08D012C02BF6C
:10409000DBE9000181F00041BDE8F08D022C0AD07F
:1040A000032C0CD0BA4212D1B8F1000F0BDA23481E
:1040B0002549BDE8F08D28462449BDE8F08D284605
:1040C0007146BDE8F08D1D482149BDE8F08D921B79
:1040D00012153C2AC4BF19481D490EDCBAF1000F65
:1040E000BEBF12F13C0F0020014606DB6246FCF722
:1040F00028FA21F00041FFF761FE002C08BFBDE85F
:10410000F08D012C04BF81F00041BDE8F08D114A13
:10411000114B022C07D0FCF79CF92A46BDE8F04D64
:104120000A4BFCF796B9FCF794F92A46BDE8F04D26
:10413000064BFCF791B900000000F07F182D4454A5
:10414000FB2109C0DE0B0000FB21F9BFFB21094068
:10415000FB21F93F075C143326A6A13C70B50A4841
:104160000068FCF75DFA094C0546D4E90010FBF73E
:10417000FBFF2946FCF750F8A168FCF747F8BDE8BB
:104180007040FFF73DB80000100000201400002030
:1041900070B514461D460E46002814BF01210021AB
:1041A000314321F00041C1F17F6101F1E041C90FCC
:1041B00016D1002C14BF01210021294321F0004118
:1041C000C1F17F6101F1E041C90F09D11449B1EB9F
:1041D000460F08BF00281CD0690008BF002C18D06B
:1041E0003146FCF701FC024640F2FF7030EA115004
:1041F0000DD0F017B0EBE17F09D0084665F31E0043
:1042000084460B4620466146FCF726F902461046D6
:1042100070BD0120FEF722FFBDE87040FEF700BF31
:104220000000E0FF704700002DE9F041244CFEF74C
:10423000A6F9A060E168401AFCF7F2F9054620688B
:10424000FCF7F7F91F4A204BFCF709F907460E4621
:1042500025F00040FCF770FA3A463346FCF780FA46
:104260000ED26068FCF768FA184AB5F5000F01DB5A
:10427000174B00E0174BFCF74BF8FCF789FA60602E
:10428000A668E6602068FCF7D4F907460D4630467C
:10429000FCF7CFF93A462B46FCF753F90B4A0D4B86
:1042A000FCF7DDF806460D466068FCF745FA324635
:1042B0002B46FCF72DF8BDE8F041FCF769BA000089
:1042C000300000209A9999999999E93FEA2E44542F
:1042D000FB2119C0FB21194010B50F4C0022802191
:1042E0002046FDF720FB00F019F80122402120466E
:1042F000FDF719FB00F012F8002240212046FDF7DF
:1043000012FB00F00BF8012280212046FDF70BFB89
:10431000BDE8104000F002B8000C01400020401C35
:104320000A28FCD37047000010B50C4C01228021F4
:104330002046FDF7F8FAFFF7F1FF01224021204661
:10434000FDF7F1FAFFF7EAFF002240212046FDF7D2
:10435000EAFABDE81040FFF7E1BF0000000C0140A1
:104360002DE9F0410024134E074625466006040E51
:10437000012240213046FDF7D6FAFFF7CFFF80211A
:104380003046FDF7CBFA08B1641CE4B200224021AC
:104390003046FDF7C8FAFFF7C1FF6D1CEDB2082DDE
:1043A000E4D327B1FFF798FF2046BDE8F081FFF77F
:1043B000BBFFF9E7000C014070B5134E0546002421
:1043C000280601D5012200E0002280213046FDF7B9
:1043D000AAFAFFF7A3FF012240213046FDF7A3FA16
:1043E000FFF79CFF002240213046FDF79CFA68064B
:1043F000641C050EE4B2082CE2D33046BDE87040E0
:1044000001228021FDF78FBA000C014010B50E4C3F
:10441000012280212046FDF786FA01224021204614
:10442000FDF781FAFFF77AFF002280212046FDF791
:104430007AFAFFF773FF002240212046FDF773FA56
:10444000BDE81040FFF76ABF000C014010B50C4CEE
:10445000002280212046FDF766FAFFF75FFF012268
:1044600040212046FDF75FFAFFF758FF0122802127
:104470002046FDF758FABDE81040FFF74FBF000097
:10448000000C014070B5144E002425460122802105
:104490003046FDF748FAFFF741FF01224021304640
:1044A000FDF741FAFFF73AFF07E0641CE4B2FA2C8B
:1044B00003D9FFF7CBFF012505E080213046FDF74A
:1044C0002DFA0028F1D1002240213046FDF72BFAC9
:1044D000FFF724FF284670BD000C0140124810B5BC
:1044E000007804281FD003281DD000F0B9F90F4927
:1044F0000860FFF733FE0E4C20600E48007830B1A4
:10450000012804D0022802D00BA0FEF7FBFC1348C0
:104510000078002807D112482268D0E90010BDE8D1
:10452000104000F051B810BD2D00002018000020F0
:10453000200000202C0000204D4F543A206E6F20A8
:10454000746F7271756520636F6E74726F6C207317
:10455000656C6563746564210000000048000020FC
:10456000240000200EB5FDF7F1F9FEF751FBFEF730
:1045700007F9FEF7E1F8FEF7A5F9FEF771F9FEF786
:10458000FDF9FCF733FBFEF7E7FA0A4A07CA8DE8A4
:10459000070069460320FCF70FFB074A0749084854
:1045A000FEF72AF8074CA06800F054F9FFF796FFD1
:1045B000F9E70000AC4B0008CDCCCC3D6F12033ABC
:1045C00090000020480000202DE9FE4F81460F4654
:1045D00001F0FF46934C1046FCF7AEF888460546BE
:1045E00016B349460846FBF717FE06463946084605
:1045F000FBF712FE3146FBF7B7FDFFF74DFA616896
:10460000FBF73CFE06463846FCF796F804460F4694
:104610004846FCF791F822463B46FFF7DFFC02468E
:104620000B462846414608E048466168FBF726FEEF
:104630000646284641467C4A7C4BFBF769FEFCF760
:10464000A7F8FEF7DDFD0146794A7A48964201DB7C
:10465000164602E0864200D906460846FCF76CF88A
:104660000546754A754B0191FBF76BFF0022744BB1
:10467000FBF74EFEFCF747F881463046FCF75CF846
:1046800006460F464846019CFBF7E4FF80466A4A0F
:104690006A4B0291FBF7E3FE2A462346FBF7D9FE5D
:1046A000FCF776F8FFF764F9FCF746F8DFF894A119
:1046B000DFF894B152465B46FBF7D1FE32463B46EB
:1046C000FBF7CDFEFCF764F8344600903E464046CA
:1046D00000225B4B0299FBF7BCFE574A574BFBF796
:1046E000BEFE0B46024628460199FBF7B2FEFCF7D8
:1046F0004FF8FFF73DF9FCF71FF852465B46FBF712
:10470000AEFE22463346FBF7AAFEFCF741F806460A
:104710004FF07E500099FBF779FD3146FBF776FDAF
:104720004FF0FF31B9F1070F5DD2DFE809F05C040B
:10473000122331414E00FBF7DFFD0746314600985A
:10474000FBF712FD3946FBF70FFD054638463146AB
:104750000BE0FBF7D1FD07460099FBF705FD054689
:1047600031460098FBF700FD3946FBF7FDFC044697
:104770003E463BE0FBF7C0FD054631460098FBF79F
:10478000F3FC2946FBF7F0FC0446284631460BE0D3
:10479000FBF7B2FD05460099FBF7E6FC04463146FF
:1047A0000098FBF7E1FC2946FBF7DEFC06461DE01E
:1047B000FBF7A2FD04463146FBF7D6FC0546314621
:1047C0000098FBF7D1FC2146EEE7FBF795FD044688
:1047D00031460098FBF7C8FC2146FBF7C5FC0546AF
:1047E00020460099E0E700252C462E46174F284624
:1047F0003946FBF711FDFBF753FF154D2968486358
:1048000039462046FBF708FDFBF74AFF2968886315
:1048100039463046FBF700FDFBF742FF2968C863C5
:10482000BDE8FE8F00000020F4D64354FB21F93F81
:1048300046B6133F46B613BF40AF2D3852C1F03FC6
:104840000000F03F6B6058E87AB6FB3F0000A044E0
:104850002C0100200149486070470000240000201E
:1048600010B5FFF7E1FC044606480068FBF7D8FEE8
:104870002146FBF7D1FC04490968BDE81040FBF76D
:10488000C5BC000000000020140000200000000053
:104890004F0000009E000000ED0000003C01000001
:1048A0008B010000D90100002802000077020000FF
:1048B000C60200001503000063030000B2030000FD
:1048C000000400004F0400009D040000EC04000000
:1048D0003A05000088050000D60500002406000007
:1048E00072060000C00600000E0700005B07000013
:1048F000A9070000F6070000430800009008000028
:10490000DD0800002A09000077090000C309000043
:104910000F0A00005C0A0000A80A0000F40A000068
:104920003F0B00008B0B0000D60B0000210C000099
:104930006C0C0000B70C0000010D00004C0D0000D5
:10494000960D0000E00D0000290E0000730E00001F
:10495000BC0E0000050F00004E0F0000960F000077
:10496000DF0F0000271000006E100000B6100000DE
:10497000FD100000441100008B110000D111000057
:10498000171200005D120000A2120000E8120000E1
:104990002D13000071130000B6130000F91300007E
:1049A0003D14000081140000C4140000061500002E
:1049B000491500008B150000CC1500000E160000F4
:1049C0004F1600008F160000CF1600000F170000D2
:1049D0004F1700008E170000CD1700000B180000C5
:1049E0004918000087180000C418000001190000D1
:1049F0003D19000079190000B5190000F0190000F8
:104A00002B1A0000661A00009F1A0000D91A000035
:104A1000121B00004B1B0000831B0000BB1B00008F
:104A2000F21B0000291C0000601C0000961C000006
:104A3000CB1C0000001D0000351D0000691D00009A
:104A40009D1D0000D01D0000031E0000351E00004B
:104A5000671E0000981E0000C91E0000FA1E00001C
:104A6000291F0000591F0000881F0000B61F00000A
:104A7000E41F0000112000003E2000006A2000001A
:104A800096200000C1200000EC200000162100004C
:104A9000402100006921000092210000BA2100009D
:104AA000E1210000082200002F2200005522000012
:104AB0007A2200009F220000C3220000E7220000AB
:104AC0000A2300002D2300004F2300007023000064
:104AD00091230000B2230000D1230000F123000045
:104AE0000F2400002D2400004B2400006824000047
:104AF00084240000A0240000BB240000D524000072
:104B0000EF24000009250000222500003A250000BE
:104B100052250000692500007F2500009525000032
:104B2000AA250000BF250000D3250000E6250000CF
:104B3000F92500000B2600001D2600002E2600008F
:104B40003E2600004E2600005D2600006C26000078
:104B50007A2600008726000094260000A026000088
:104B6000AB260000B6260000C0260000CA260000C2
:104B7000D3260000DB260000E3260000EA26000022
:104B8000F1260000F7260000FC26000001270000A7
:104B900005270000082700000B2700000D27000054
:104BA0000F2700001027000010270000BC03C800DA
:104BB000F602C8007E02F4010000000000000000C0
:104BC00001020304060708094FBB610567ACDD3F1E
:104BD000182D4454FB21E93F9BF681D20B73EF3F24
:104BE000182D4454FB21F93FE2652F227F2B7A3C9C
:104BF000075C143326A6813CBDCBF07A8807703C55
:104C0000075C143326A6913CC4EB98999999C9BFC7
:104C1000711623FEC671BCBF6D9A74AFF2B0B3BFFC
:104C20009AFDDE522DDEADBF2F6C6A2C44B4A2BFBC
:104C30000D5555555555D53FFF8300922449C23F28
:104C40006E204CC5CD45B73F513DD0A0660DB13F5C
:104C5000EB0D76244B7BA93F11DA22E33AAD903F6E
:104C60000000000000000000884C00080000002048
:104C70007C0000003C300008044D00087C0000204F
:104C8000640500004C300008000000000000000037
:104C90000000000000000000000000000000000014
:104CA0000000000000000000000000000000000004
:104CB00000000000000000000000000000000000F4
:104CC00000000000000000000000000000000000E4
:104CD00000010100000000000000000000000000D2
:104CE00000000000000000000000000001000000C3
:104CF00010000000000000000024F400000000008C
:044D000000000000AF
:04000005080000ED02
:00000001FF
